:1000000018C03CC03BC03AC09EC338C037C036C0E1
:1000100035C034C033C032C031C030C02FC001023F
:1000200004081020010101010101003600380037E9
:10003000DD0011241FBECFE5D2E0DEBFCDBF10E052
:10004000A0E6B0E0EAE0FAE002C005900D92A63822
:10005000B107D9F720E0A6E8B0E001C01D92A83BA7
:10006000B207E1F710E0C2E3D0E003C02297FE013F
:10007000C6D4C033D107D1F753D3C5C4C1CF109272
:100080008F0010928E0062E081E033D462E083E062
:1000900030D48AE990E097D080E990E05DD280E9A1
:1000A00090E0AFD166E670E080E990E095C20F93F2
:1000B0001F9390938F0080938E008230910561F0A2
:1000C00083309105E1F0019709F040C080E990E0AC
:1000D000DAD16EE670E00EC07DD360938A00709333
:1000E0008B0080938C0090938D0080E990E0CBD1C1
:1000F00064E770E080E990E01F910F916DC26AD3D0
:1001000000918A0010918B0020918C0030918D001D
:10011000601B710B820B930B6093860070938700BA
:10012000809388009093890080E990E0ACD1409161
:1001300086005091870060918800709189002AE0C4
:1001400030E080E990E01F910F91DEC21F910F9186
:100150000895CF9381E004D4C1E0892B09F4C0E075
:1001600083E0FED320918E0030918F002230310544
:10017000A1F03CF421153105D1F02130310541F0D9
:100180001AC02330310571F02430310571F013C0ED
:10019000C11111C082E090E00CC0CC2361F083E07B
:1001A00090E007C084E090E004C0892B21F481E056
:1001B00090E0CF917CCFCF91089522E040E167E2BB
:1001C00080E990E000C12FC010929B00660F609301
:1001D0009C000895E0919B00E23150F4EF5FE093C2
:1001E0009B00F0E0E456FF4F608381E090E00895CB
:1001F00080E090E00895CF93C62F60919B006F5FE1
:100200008CE990E0C6D010929B00882329F0CC2383
:1002100029F0C2D0811102C0CF9110C080E0CF91EF
:10022000089561E0E8CFC09AC29ABA9AB89A8FEF5F
:100230008FB98AE28DB980EF8EB908958091AE00B2
:1002400008958EB98BE29BE19A95F1F700C08DB9C4
:10025000B29BFECF96E19A95F1F78DB9769BF3CFDD
:100260008BE18A95F1F700C08FB19FEF9FB9B89AE3
:100270000895C29AC29BFECF8BE18A95F1F700C028
:10028000C09886E18A95F1F7C298C09A779905C01F
:1002900083E08093AE0080E0089581E00895AF92FE
:1002A000BF92CF92DF92EF92FF920F931F93CF9363
:1002B000DF93EC01C62E8091AE0081608093AE008A
:1002C000988190FD03C082608093AE00D2DF8823C6
:1002D00009F454C0FC2C8E01BB24BA94AA24A39424
:1002E0002091AE002370C8010196222371F1C298BB
:1002F000D82EE92EF80180818FB980EFA2DFB8985F
:100300008EEF9FDF9091AE0080FF0BC0892F817030
:1003100090FF05C081E08093AE0080E02FC092E0A6
:100320000DC0892F8570843061F488818160888355
:10033000A092AE009EDF811118C09AE09093AE00AB
:100340001DC09E7F9093AE0013C0B898D82EE92EA2
:1003500080EF77DFF8018083F1E0FF1202C0BFB8C1
:1003600001C01FB88EEF6DDF03C0FC2CDC2EED2E1C
:10037000FA9419F00D2D1E2DB3CF81E0DF91CF91AE
:100380001F910F91FF90EF90DF90CF90BF90AF90B3
:1003900008951092AE0083CFC098C29AB29BFECF50
:1003A00086E18A95F1F7C09A8BE18A95F1F700C052
:1003B0009EB1892F807295FD04C094E09093AE00A9
:1003C000089581E00895FC0180E890E091838083A6
:1003D000628347832087118608951F93CF93DF930D
:1003E000EC01162F6A818AE990E0EEDE6985612BC7
:1003F0008AE990E0EFDE8AE990E0DF91CF911F91EA
:1004000010CF28E0FC01218760E0E7CF1F93CF9356
:10041000DF93EC01162F6460E0DF81E090E02ED2E4
:10042000612F6B7FCE01D9DF82E390E0DF91CF9126
:100430001F9124C21F93CF93DF93EC01162FCDDFC2
:10044000612FCE01DF91CF911F91E0CFEF92FF920C
:100450001F93CF93DF931F92CDB7DEB77C01162F8A
:10046000607F642B4983E6DF612F6295607F49815D
:10047000642BC7010F90DF91CF911F91FF90EF90F8
:10048000D9CF40E0E3CF61E0FCDF80ED97E0F6C13B
:1004900062E0F7DF80ED97E0F1C1FC016481262F77
:1004A000246024836C60EDCF41E0D0DF80E090E0F9
:1004B0000895CF93DF93EC01423018F08B81886070
:1004C0008B834E83222329F0413019F48B81846081
:1004D0008B8362E370E080E090E0ACD16985CE016F
:1004E0007CDF68EE73E080E090E0A4D160E3CE01B1
:1004F000A1DF84E991E1C2D160E3CE019BDF84E911
:1005000091E1BCD160E3CE0195DF86E990E0B6D100
:1005100060E2CE018FDF6B816062CE01B2DF84E0EA
:100520008C83CE01BADFCE01AEDF82E08D8366E040
:10053000CE01A7DFCE01DF91CF91AACFCF93DF937A
:10054000EC018AE990E03FDE1B8220E048856F8164
:10055000CE01DF91CF91ADCFF1CF0F931F93CF930A
:10056000DF93EC018B01F80161918F01662341F06B
:10057000E881F9810190F081E02DCE010995F3CF5A
:10058000DF91CF911F910F910895EF92FF920F93FA
:100590001F93CF93DF937C018A01EB01060F171F96
:1005A000C017D10751F06991D701ED91FC910190ED
:1005B000F081E02DC7010995F3CFDF91CF911F9115
:1005C0000F91FF90EF900895DC01ED91FC91019067
:1005D000F081E02D642F0994DC01ED91FC91028003
:1005E000F381E02D09944F925F926F927F928F92E8
:1005F0009F92AF92BF92CF92DF92EF92FF920F93B2
:100600001F93CF93DF93CDB7DEB7A0970FB6F894C3
:10061000DEBF0FBECDBF5C014115510561057105FF
:10062000D9F440E350E060E070E0A0960FB6F89493
:10063000DEBF0FBECDBFDF91CF911F910F91FF9015
:10064000EF90DF90CF90BF90AF909F908F907F9072
:100650006F905F904F90B8CF8E010F5F1F4FC12CEE
:10066000D12C76014801422E512C612C712C8FEF38
:10067000C81AD80AE80AF80ACB01BA01A301920104
:100680009AD1CA01F80161938F01A901BC014115FA
:1006900051056105710559F7F1E0CF1AD108E1085C
:1006A000F108F401EC0DFD1D80818A3010F440E367
:1006B00001C047E3480F552747FD5095652F752F1B
:1006C000C50182DF81E0C81AD108E108F108EFEF27
:1006D000CE16DE06EE06FE0621F7A0960FB6F894BB
:1006E000DEBF0FBECDBFDF91CF911F910F91FF9065
:1006F000EF90DF90CF90BF90AF909F908F907F90C2
:100700006F905F904F9008952115310541F4DC0101
:10071000ED91FC910190F081E02D642F099463CF5D
:10072000CFD0ADDC16DDFECF83B7887F83BF8AB51F
:100730008C7F81608ABD83B7877F83BF83B7887FC3
:10074000836083BF089578941F920F920FB60F9223
:1007500011242F933F938F939F93AF93BF938091D7
:10076000B0009091B100A091B200B091B30030916F
:10077000AF002CE7230F2D3728F02FEF230F019622
:10078000A11DB11D2093AF008093B0009093B100E4
:10079000A093B200B093B3008091B4009091B500E3
:1007A000A091B600B091B7000196A11DB11D809334
:1007B000B4009093B500A093B600B093B700BF917A
:1007C000AF919F918F913F912F910F900FBE0F90FE
:1007D0001F9018952FB7F8946091B0007091B100F8
:1007E0008091B2009091B3002FBF08953FB7F89465
:1007F0008091B4009091B500A091B600B091B7007F
:100800002FB508B602FE05C02F3F19F00196A11DB5
:10081000B11D3FBF6627782F892F9A2F620F711D58
:10082000811D911D42E0660F771F881F991F4A9511
:10083000D1F70895CF92DF92EF92FF92CF93DF939B
:100840006B017C01D3DFEB01C114D104E104F1049D
:1008500071F0CCDF6C1B7D0B683E7340A8F381E028
:10086000C81AD108E108F108C851DC4FEDCFDF917B
:10087000CF91FF90EF90DF90CF9008958E7F8230E0
:100880009105E8F0000000000000000000000000FA
:100890000000000000000000000000000000000058
:1008A0000000000000000000000000000000000048
:1008B000000000000000000000000297E0CF089553
:1008C000789480B7806880BF80B7806480BF8CB523
:1008D00080648CBD8FEF8DBD80B7807F876080BFC7
:1008E00089B7846089BF20DF86B1876086B9379A6F
:1008F0000895CF93DF9390E0FC01E25EFF4F2491D7
:10090000FC01EC5DFF4F8491882339F190E0FC01FC
:10091000E25DFF4FA491B0E0FC01E45DFF4F8491E4
:10092000611106C09FB7F8948C912095822313C063
:10093000623069F4C82FD0E09FB7F8948C91322FC1
:10094000309583238C938881822B888305C09FB741
:10095000F8948C91822B8C939FBFDF91CF91089557
:10096000282F30E0F901E25EFF4F9491F901EC5D30
:10097000FF4FE491EE23E1F0811103C08AB58F733C
:1009800004C0813021F48AB58F7C8ABD05C08430D3
:1009900019F48CB58F7C8CBDF0E0E65DFF4FE491DF
:1009A000F0E02081292381E090E021F480E00895A7
:1009B00080E090E00895A1E21A2EAA1BBB1BFD0166
:1009C0000DC0AA1FBB1FEE1FFF1FA217B307E4072E
:1009D000F50720F0A21BB30BE40BF50B661F771F86
:1009E000881F991F1A9469F7609570958095909566
:1009F0009B01AC01BD01CF010895EE0FFF1F0590D3
:0A0A0000F491E02D0994F894FFCF63
:100A0A000000B80080002E2E204746434900524578
:100A1A004144590054455354494E470000000000D0
:060A2A005402AD02C502FA
:00000001FF
